{
  "_format": "hh-sol-artifact-1",
  "contractName": "ULoan",
  "sourceName": "contracts/ULoan.sol",
  "abi": [
    {
      "inputs": [
        {
          "internalType": "address",
          "name": "_stablecoin",
          "type": "address"
        }
      ],
      "stateMutability": "nonpayable",
      "type": "constructor"
    },
    {
      "anonymous": false,
      "inputs": [
        {
          "indexed": false,
          "internalType": "uint256",
          "name": "capitalProviderIndex",
          "type": "uint256"
        },
        {
          "indexed": false,
          "internalType": "uint256",
          "name": "amountToRecoup",
          "type": "uint256"
        }
      ],
      "name": "CapitalRecouped",
      "type": "event"
    },
    {
      "anonymous": false,
      "inputs": [
        {
          "indexed": false,
          "internalType": "uint256",
          "name": "capitalProviderIndex",
          "type": "uint256"
        },
        {
          "indexed": false,
          "internalType": "uint256",
          "name": "amount",
          "type": "uint256"
        },
        {
          "indexed": false,
          "internalType": "uint8",
          "name": "minRiskLevel",
          "type": "uint8"
        },
        {
          "indexed": false,
          "internalType": "uint8",
          "name": "maxRiskLevel",
          "type": "uint8"
        },
        {
          "indexed": false,
          "internalType": "uint16",
          "name": "lockUpPeriodInDays",
          "type": "uint16"
        }
      ],
      "name": "NewCapitalProvided",
      "type": "event"
    },
    {
      "inputs": [],
      "name": "DURATION_COEFFICIENT_IN_CENTILE",
      "outputs": [
        {
          "internalType": "uint16",
          "name": "",
          "type": "uint16"
        }
      ],
      "stateMutability": "view",
      "type": "function"
    },
    {
      "inputs": [],
      "name": "MIN_DEPOSIT_AMOUNT",
      "outputs": [
        {
          "internalType": "uint256",
          "name": "",
          "type": "uint256"
        }
      ],
      "stateMutability": "view",
      "type": "function"
    },
    {
      "inputs": [],
      "name": "MIN_LOCKUP_PERIOD_IN_DAYS",
      "outputs": [
        {
          "internalType": "uint256",
          "name": "",
          "type": "uint256"
        }
      ],
      "stateMutability": "view",
      "type": "function"
    },
    {
      "inputs": [],
      "name": "PROTOCOL_FEE_IN_CENTILE",
      "outputs": [
        {
          "internalType": "uint16",
          "name": "",
          "type": "uint16"
        }
      ],
      "stateMutability": "view",
      "type": "function"
    },
    {
      "inputs": [],
      "name": "RISK_COEFFICIENT_IN_CENTILE",
      "outputs": [
        {
          "internalType": "uint16",
          "name": "",
          "type": "uint16"
        }
      ],
      "stateMutability": "view",
      "type": "function"
    },
    {
      "inputs": [],
      "name": "RISK_FREE_RATE_IN_CENTILE",
      "outputs": [
        {
          "internalType": "uint16",
          "name": "",
          "type": "uint16"
        }
      ],
      "stateMutability": "view",
      "type": "function"
    },
    {
      "inputs": [
        {
          "internalType": "uint256",
          "name": "_amount",
          "type": "uint256"
        },
        {
          "internalType": "uint8",
          "name": "_minRiskLevel",
          "type": "uint8"
        },
        {
          "internalType": "uint8",
          "name": "_maxRiskLevel",
          "type": "uint8"
        },
        {
          "internalType": "uint16",
          "name": "_lockUpPeriodInDays",
          "type": "uint16"
        }
      ],
      "name": "depositCapital",
      "outputs": [],
      "stateMutability": "nonpayable",
      "type": "function"
    },
    {
      "inputs": [
        {
          "internalType": "uint256",
          "name": "_amount",
          "type": "uint256"
        },
        {
          "internalType": "uint8",
          "name": "_minRiskLevel",
          "type": "uint8"
        },
        {
          "internalType": "uint8",
          "name": "_maxRiskLevel",
          "type": "uint8"
        },
        {
          "internalType": "uint16",
          "name": "_lockUpPeriodInDays",
          "type": "uint16"
        }
      ],
      "name": "getReturnEstimate",
      "outputs": [
        {
          "internalType": "uint256",
          "name": "",
          "type": "uint256"
        },
        {
          "internalType": "uint256",
          "name": "",
          "type": "uint256"
        }
      ],
      "stateMutability": "view",
      "type": "function"
    },
    {
      "inputs": [
        {
          "internalType": "uint256",
          "name": "_capitalProviderIndex",
          "type": "uint256"
        }
      ],
      "name": "recoupCapital",
      "outputs": [],
      "stateMutability": "nonpayable",
      "type": "function"
    },
    {
      "inputs": [],
      "name": "stablecoin",
      "outputs": [
        {
          "internalType": "contract IERC20",
          "name": "",
          "type": "address"
        }
      ],
      "stateMutability": "view",
      "type": "function"
    }
  ],
  "bytecode": "0x6080604052600a60015560076002556064600360006101000a81548161ffff021916908361ffff160217905550601e600360026101000a81548161ffff021916908361ffff160217905550601e600360046101000a81548161ffff021916908361ffff160217905550600a600360066101000a81548161ffff021916908361ffff1602179055503480156200009357600080fd5b5060405162001813380380620018138339818101604052810190620000b9919062000117565b806000806101000a81548173ffffffffffffffffffffffffffffffffffffffff021916908373ffffffffffffffffffffffffffffffffffffffff1602179055505062000191565b600081519050620001118162000177565b92915050565b6000602082840312156200012a57600080fd5b60006200013a8482850162000100565b91505092915050565b6000620001508262000157565b9050919050565b600073ffffffffffffffffffffffffffffffffffffffff82169050919050565b620001828162000143565b81146200018e57600080fd5b50565b61167280620001a16000396000f3fe608060405234801561001057600080fd5b506004361061009e5760003560e01c806336a4d8611161006657806336a4d861146101395780637b71523614610155578063b9d276e314610186578063e9cbd822146101a4578063e9e00a5c146101c25761009e565b8063066bea24146100a35780630da423fc146100c15780631cc7342a146100df5780631ea30fef146100fd5780633202d2e71461011b575b600080fd5b6100ab6101de565b6040516100b89190610f91565b60405180910390f35b6100c96101f2565b6040516100d69190610f91565b60405180910390f35b6100e7610206565b6040516100f49190610f91565b60405180910390f35b61010561021a565b6040516101129190610fac565b60405180910390f35b610123610220565b6040516101309190610f91565b60405180910390f35b610153600480360381019061014e9190610b5e565b610234565b005b61016f600480360381019061016a9190610b87565b6104ce565b60405161017d929190610fc7565b60405180910390f35b61018e61068c565b60405161019b9190610fac565b60405180910390f35b6101ac610692565b6040516101b99190610e16565b60405180910390f35b6101dc60048036038101906101d79190610b87565b6106b6565b005b600360009054906101000a900461ffff1681565b600360029054906101000a900461ffff1681565b600360049054906101000a900461ffff1681565b60015481565b600360069054906101000a900461ffff1681565b600454811115610279576040517f08c379a000000000000000000000000000000000000000000000000000000000815260040161027090610f11565b60405180910390fd5b60006005600083815260200190815260200160002090506000816002015490503373ffffffffffffffffffffffffffffffffffffffff168260000160009054906101000a900473ffffffffffffffffffffffffffffffffffffffff1673ffffffffffffffffffffffffffffffffffffffff161461032b576040517f08c379a000000000000000000000000000000000000000000000000000000000815260040161032290610f71565b60405180910390fd5b600081101561036f576040517f08c379a000000000000000000000000000000000000000000000000000000000815260040161036690610e31565b60405180910390fd5b60008060009054906101000a900473ffffffffffffffffffffffffffffffffffffffff1673ffffffffffffffffffffffffffffffffffffffff1663a9059cbb8460000160009054906101000a900473ffffffffffffffffffffffffffffffffffffffff16846040518363ffffffff1660e01b81526004016103f1929190610ded565b602060405180830381600087803b15801561040b57600080fd5b505af115801561041f573d6000803e3d6000fd5b505050506040513d601f19601f820116820180604052508101906104439190610b35565b905080610485576040517f08c379a000000000000000000000000000000000000000000000000000000000815260040161047c90610eb1565b60405180910390fd5b600083600201819055507f757c09facdd1c100d67976b3ad0a4a2ff17dc20107825de74f47852197891a8784836040516104c0929190610fc7565b60405180910390a150505050565b6000808460ff168460ff16101561051a576040517f08c379a000000000000000000000000000000000000000000000000000000000815260040161051190610e91565b60405180910390fd5b60018560ff161015610561576040517f08c379a000000000000000000000000000000000000000000000000000000000815260040161055890610e51565b60405180910390fd5b60648460ff1611156105a8576040517f08c379a000000000000000000000000000000000000000000000000000000000815260040161059f90610e71565b60405180910390fd5b60018361ffff1610156105f0576040517f08c379a00000000000000000000000000000000000000000000000000000000081526004016105e790610ed1565b60405180910390fd5b600154861015610635576040517f08c379a000000000000000000000000000000000000000000000000000000000815260040161062c90610f51565b60405180910390fd5b60006106418685610a37565b9050600061064f8686610a37565b905060008261ffff168961066391906110c8565b905060008261ffff168a61067791906110c8565b90508181955095505050505094509492505050565b60025481565b60008054906101000a900473ffffffffffffffffffffffffffffffffffffffff1681565b8260ff168260ff1610156106ff576040517f08c379a00000000000000000000000000000000000000000000000000000000081526004016106f690610e91565b60405180910390fd5b60018360ff161015610746576040517f08c379a000000000000000000000000000000000000000000000000000000000815260040161073d90610e51565b60405180910390fd5b60648260ff16111561078d576040517f08c379a000000000000000000000000000000000000000000000000000000000815260040161078490610e71565b60405180910390fd5b6002548161ffff1610156107d6576040517f08c379a00000000000000000000000000000000000000000000000000000000081526004016107cd90610f31565b60405180910390fd5b60015484101561081b576040517f08c379a000000000000000000000000000000000000000000000000000000000815260040161081290610f51565b60405180910390fd5b60008060009054906101000a900473ffffffffffffffffffffffffffffffffffffffff1673ffffffffffffffffffffffffffffffffffffffff166323b872dd3330886040518463ffffffff1660e01b815260040161087b93929190610db6565b602060405180830381600087803b15801561089557600080fd5b505af11580156108a9573d6000803e3d6000fd5b505050506040513d601f19601f820116820180604052508101906108cd9190610b35565b90508061090f576040517f08c379a000000000000000000000000000000000000000000000000000000000815260040161090690610ef1565b60405180910390fd5b60046000815480929190610922906111dd565b919050555060006005600060045481526020019081526020016000209050338160000160006101000a81548173ffffffffffffffffffffffffffffffffffffffff021916908373ffffffffffffffffffffffffffffffffffffffff160217905550848160000160146101000a81548160ff021916908360ff160217905550838160000160156101000a81548160ff021916908360ff160217905550828160000160166101000a81548161ffff021916908361ffff1602179055508581600101819055508581600201819055507f25df0c7e962e4bc702adc27ab2fd8b03e966ac294bb0139e4e15a2dc40be868960045487878787604051610a27959493929190610ff0565b60405180910390a1505050505050565b600080610a448484610a77565b9050600360069054906101000a900461ffff166001610a639190611122565b81610a6e919061108c565b91505092915050565b600081600360049054906101000a900461ffff16610a95919061108c565b8360ff16600360029054906101000a900461ffff16610ab4919061108c565b610abe919061108c565b600360009054906101000a900461ffff16610ad99190611054565b905092915050565b600081519050610af0816115e0565b92915050565b600081359050610b05816115f7565b92915050565b600081359050610b1a8161160e565b92915050565b600081359050610b2f81611625565b92915050565b600060208284031215610b4757600080fd5b6000610b5584828501610ae1565b91505092915050565b600060208284031215610b7057600080fd5b6000610b7e84828501610b0b565b91505092915050565b60008060008060808587031215610b9d57600080fd5b6000610bab87828801610b0b565b9450506020610bbc87828801610b20565b9350506040610bcd87828801610b20565b9250506060610bde87828801610af6565b91505092959194509250565b610bf381611156565b82525050565b610c02816111b9565b82525050565b6000610c15602683611043565b9150610c2082611255565b604082019050919050565b6000610c38602a83611043565b9150610c43826112a4565b604082019050919050565b6000610c5b602583611043565b9150610c66826112f3565b604082019050919050565b6000610c7e603b83611043565b9150610c8982611342565b604082019050919050565b6000610ca1603783611043565b9150610cac82611391565b604082019050919050565b6000610cc4603083611043565b9150610ccf826113e0565b604082019050919050565b6000610ce7603783611043565b9150610cf28261142f565b604082019050919050565b6000610d0a602383611043565b9150610d158261147e565b604082019050919050565b6000610d2d604283611043565b9150610d38826114cd565b606082019050919050565b6000610d50603183611043565b9150610d5b82611542565b604082019050919050565b6000610d73603e83611043565b9150610d7e82611591565b604082019050919050565b610d9281611174565b82525050565b610da1816111a2565b82525050565b610db0816111ac565b82525050565b6000606082019050610dcb6000830186610bea565b610dd86020830185610bea565b610de56040830184610d98565b949350505050565b6000604082019050610e026000830185610bea565b610e0f6020830184610d98565b9392505050565b6000602082019050610e2b6000830184610bf9565b92915050565b60006020820190508181036000830152610e4a81610c08565b9050919050565b60006020820190508181036000830152610e6a81610c2b565b9050919050565b60006020820190508181036000830152610e8a81610c4e565b9050919050565b60006020820190508181036000830152610eaa81610c71565b9050919050565b60006020820190508181036000830152610eca81610c94565b9050919050565b60006020820190508181036000830152610eea81610cb7565b9050919050565b60006020820190508181036000830152610f0a81610cda565b9050919050565b60006020820190508181036000830152610f2a81610cfd565b9050919050565b60006020820190508181036000830152610f4a81610d20565b9050919050565b60006020820190508181036000830152610f6a81610d43565b9050919050565b60006020820190508181036000830152610f8a81610d66565b9050919050565b6000602082019050610fa66000830184610d89565b92915050565b6000602082019050610fc16000830184610d98565b92915050565b6000604082019050610fdc6000830185610d98565b610fe96020830184610d98565b9392505050565b600060a0820190506110056000830188610d98565b6110126020830187610d98565b61101f6040830186610da7565b61102c6060830185610da7565b6110396080830184610d89565b9695505050505050565b600082825260208201905092915050565b600061105f82611174565b915061106a83611174565b92508261ffff0382111561108157611080611226565b5b828201905092915050565b600061109782611174565b91506110a283611174565b92508161ffff04831182151516156110bd576110bc611226565b5b828202905092915050565b60006110d3826111a2565b91506110de836111a2565b9250817fffffffffffffffffffffffffffffffffffffffffffffffffffffffffffffffff048311821515161561111757611116611226565b5b828202905092915050565b600061112d82611174565b915061113883611174565b92508282101561114b5761114a611226565b5b828203905092915050565b600061116182611182565b9050919050565b60008115159050919050565b600061ffff82169050919050565b600073ffffffffffffffffffffffffffffffffffffffff82169050919050565b6000819050919050565b600060ff82169050919050565b60006111c4826111cb565b9050919050565b60006111d682611182565b9050919050565b60006111e8826111a2565b91507fffffffffffffffffffffffffffffffffffffffffffffffffffffffffffffffff82141561121b5761121a611226565b5b600182019050919050565b7f4e487b7100000000000000000000000000000000000000000000000000000000600052601160045260246000fd5b7f596f752063757272656e746c792068617665206e6f7468696e6720746f20776960008201527f7468647261770000000000000000000000000000000000000000000000000000602082015250565b7f546865206d696e207269736b206c6576656c2063616e277420626520736d616c60008201527f6c6572207468616e203100000000000000000000000000000000000000000000602082015250565b7f546865206d6178207269736b206c6576656c2063616e27742062652061626f7660008201527f6520313030000000000000000000000000000000000000000000000000000000602082015250565b7f546865206d6178207269736b206c6576656c2063616e277420626520736d616c60008201527f6c6572207468616e20746865206d696e207269736b206c6576656c0000000000602082015250565b7f546865207472616e73666572206f662066756e64732066726f6d20554c6f616e60008201527f20746f20796f7572206163636f756e74206661696c6564000000000000000000602082015250565b7f546865206c6f636b2d757020706572696f642063616e27742062652073686f7260008201527f746572207468616e206f6e652064617900000000000000000000000000000000602082015250565b7f546865207472616e73666572206f662066756e6473206661696c65642c20646f60008201527f20796f75206861766520656e6f7567682066756e64733f000000000000000000602082015250565b7f54686973206361706974616c2070726f766964657220646f65736e277420657860008201527f6973740000000000000000000000000000000000000000000000000000000000602082015250565b7f546865206c6f636b2d757020706572696f642063616e27742062652073686f7260008201527f746572207468616e204d494e5f4c4f434b55505f504552494f445f494e5f444160208201527f5953000000000000000000000000000000000000000000000000000000000000604082015250565b7f54686520616d6f756e742063616e2774206265206c6f776572207468616e204d60008201527f494e5f4445504f5349545f414d4f554e54000000000000000000000000000000602082015250565b7f596f752063616e27742077697468647261772066756e647320796f752064696460008201527f6e27742070726f7669646520696e2074686520666972737420706c6163650000602082015250565b6115e981611168565b81146115f457600080fd5b50565b61160081611174565b811461160b57600080fd5b50565b611617816111a2565b811461162257600080fd5b50565b61162e816111ac565b811461163957600080fd5b5056fea264697066735822122032058b3a6d1eb0d61c1f5b323847152e82a2392d6f148ec307ab55cbd0a13c8664736f6c63430008040033",
  "linkReferences": {},
  "deployedLinkReferences": {}
}